:100000000C9462000C948A000C948A000C948A0070
:100010000C948A000C948A000C948A000C948A0038
:100020000C948A000C948A000C948A000C948A0028
:100030000C948A000C948A000C948A000C948A0018
:100040000C94F5010C948A000C9465020C943F0208
:100050000C948A000C948A000C948A000C948A00F8
:100060000C948A000C948A000000000024002700F1
:100070002A000000000023002600290000000000E4
:10008000250028002B0004040404040404040202D4
:100090000202020203030303030301020408102007
:1000A0004080010204081020010204081020000012
:1000B0000008000201000003040700000000000027
:1000C0000000A80311241FBECFEFD8E0DEBFCDBFD4
:1000D00011E0A0E0B1E0EAEBF7E002C005900D927C
:1000E000A633B107D9F721E0A6E3B1E001C01D9224
:1000F000AE3DB207E1F710E0C2E6D0E004C02197C0
:10010000FE010E94D503C136D107C9F70E949702AC
:100110000C94DB030C940000833081F028F48130D0
:1001200099F08230A9F008958730A9F08830C9F09D
:100130008430B1F4809180008F7D03C08091800075
:100140008F7780938000089584B58F7784BD08955C
:1001500084B58F7DFBCF8091B0008F778093B00006
:1001600008958091B0008F7DF9CF1F93CF93DF93D7
:10017000EBEBF0E09491E7EAF0E0D491E3E9F0E012
:10018000C491CC23B9F0182F992319F0892F0E941C
:100190008C00EC2FF0E0EE0FFF1FE458FF4FA5910D
:1001A000B4918FB7F894EC91111108C0D095DE236B
:1001B000DC938FBFDF91CF911F910895DE2BF8CF95
:1001C000AF92BF92CF92DF92EF92FF920F931F9365
:1001D000CF93DF936C017B018B01040F151FEB01A3
:1001E0005E01AE18BF08C017D10759F06991D6015A
:1001F000ED91FC910190F081E02DC6010995892BCC
:1002000079F7C501DF91CF911F910F91FF90EF908A
:10021000DF90CF90BF90AF900895FC01538D448D37
:10022000252F30E0842F90E0821B930B541710F0A1
:10023000CF96089501970895FC01918D828D9817AE
:1002400061F0A28DAE0FBF2FB11D5D968C91928D86
:100250009F5F9F73928F90E008958FEF9FEF0895B7
:10026000FC01918D828D981731F0828DE80FF11D80
:10027000858D90E008958FEF9FEF0895FC01918D9B
:10028000228D892F90E0805C9F4F821B91098F7394
:100290009927089581E491E00E943E0121E0892B95
:1002A00009F420E0822F089580E090E0892B29F066
:1002B0000E944A0181110C9400000895FC01A48D54
:1002C000A80FB92FB11DA35ABF4F2C91848D90E078
:1002D00001968F739927848FA689B7892C93A0895B
:1002E000B1898C91837080648C93938D848D9813E5
:1002F00006C00288F389E02D80818F7D8083089578
:10030000EF92FF920F931F93CF93DF93EC0181E065
:10031000888F9B8D8C8D98131AC0E889F98980810C
:1003200085FF15C09FB7F894EE89FF896083E8893F
:10033000F98980818370806480839FBF81E090E031
:10034000DF91CF911F910F91FF90EF900895F62EBE
:100350000B8D10E00F5F1F4F0F731127E02E8C8D58
:100360008E110CC00FB607FCFACFE889F98980819D
:1003700085FFF5CFCE010E945E01F1CFEB8DEC0F32
:10038000FD2FF11DE35AFF4FF0829FB7F8940B8FBA
:10039000EA89FB8980818062CFCFCF93DF93EC0124
:1003A000888D8823B9F0AA89BB89E889F9898C915D
:1003B00085FD03C0808186FD0DC00FB607FCF7CF19
:1003C0008C9185FFF2CF808185FFEDCFCE010E9419
:1003D0005E01E9CFDF91CF91089542E050E062E104
:1003E00071E081E491E00C94E0001F920F920FB64F
:1003F0000F9211242F933F938F939F93AF93BF93AB
:1004000080913D0190913E01A0913F01B09140014A
:1004100030913C0123E0230F2D3758F50196A11DA3
:10042000B11D20933C0180933D0190933E01A09328
:100430003F01B09340018091380190913901A09122
:100440003A01B0913B010196A11DB11D8093380185
:1004500090933901A0933A01B0933B01BF91AF91C2
:100460009F918F913F912F910F900FBE0F901F90F2
:10047000189526E8230F0296A11DB11DD2CF1F9219
:100480000F920FB60F9211242F933F934F935F93C8
:100490006F937F938F939F93AF93BF93EF93FF934C
:1004A00081E491E00E945E01FF91EF91BF91AF91D5
:1004B0009F918F917F916F915F914F913F912F917C
:1004C0000F900FBE0F901F9018951F920F920FB6AE
:1004D0000F9211242F938F939F93EF93FF93E091AB
:1004E0005101F09152018081E0915701F091580142
:1004F00082FD1BC0908180915A018F5F8F73209184
:100500005B01821741F0E0915A01F0E0EF5BFE4F92
:10051000958F80935A01FF91EF919F918F912F9129
:100520000F900FBE0F901F9018958081F4CF789494
:1005300084B5826084BD84B5816084BD85B58260E8
:1005400085BD85B5816085BD80916E008160809399
:100550006E00109281008091810082608093810002
:100560008091810081608093810080918000816012
:10057000809380008091B10084608093B10080916D
:10058000B00081608093B00080917A008460809395
:100590007A0080917A00826080937A0080917A005C
:1005A000816080937A0080917A00806880937A00DD
:1005B0001092C100E0915101F091520182E08083DC
:1005C000E0914D01F0914E011082E0914F01F091C8
:1005D000500180E1808310925901E0915501F09122
:1005E000560186E08083E0915301F09154018081AF
:1005F00080618083E0915301F09154018081886093
:100600008083E0915301F091540180818068808360
:10061000E0915301F091540180818F7D8083C0EA85
:10062000D0E0FE0124910CE810E0F80184918823C9
:10063000C9F090E0880F991FFC01E859FF4FA59180
:10064000B491FC01E458FF4F459154913FB7F894A1
:100650009C91822F809598239C93FA019081892305
:1006600080833FBFE7EAF0E02491E3E9F0E0849182
:10067000882399F090E0880F991FFC01E859FF4FFB
:10068000A591B491FC01E458FF4F859194918FB7E7
:10069000F894EC91E22BEC938FBF94EBE92E90E071
:1006A000F92E20E0C22E20E0D22E88248394912CB3
:1006B000F7018491FE01B490F801A490AA2081F181
:1006C00081110E948C00EA2DF0E0EE0FFF1FEE5822
:1006D000FF4FA591B4918C91B82211F1A0903601F1
:1006E000B090370181E00E94B500AB2871F440E181
:1006F00050E065E171E081E491E00E94E0000E9439
:10070000ED019092370180923601C114D10481F23B
:100710000E944A01882309F4CBCF0E940000C8CF71
:1007200080E00E94B50080913601909137010197D9
:1007300061F74FE050E066E271E081E491E00E94F1
:10074000E0000E94ED011092370110923601DDCFDA
:10075000E1E4F1E01382128288EE93E0A0E0B0E0E1
:1007600084839583A683B78384E091E0918380831B
:1007700085EC90E09587848784EC90E09787868766
:1007800080EC90E0918B808B81EC90E0938B828B5E
:1007900082EC90E0958B848B86EC90E0978B868B37
:1007A000118E128E138E148E0895EE0FFF1F05907A
:0A07B000F491E02D0994F894FFCFB6
:1007BA00000000008001E0000D01CD013E011C0196
:1007CA0030010D0A004D6F74696F6E20646574659F
:1007DA006374656421004D6F74696F6E2073746F62
:0607EA007070656421003F
:00000001FF
